:10000000DFC00000F9C00000F7C00000F5C000002C
:10001000F3C00000F1C00000EFC00000EDC0000020
:10002000EBC00000E9C00000DBC60000E5C0000036
:10003000E3C00000E1C00000DFC00000DDC0000040
:10004000DBC00000D9C00000D7C00000D5C0000050
:10005000D3C00000D1C00000CFC00000CDC0000060
:10006000CBC00000C9C00000C7C00000C5C0000070
:10007000C3C00000C1C00000BFC00000BDC0000080
:10008000BBC00000B9C00000B7C00000B5C0000090
:10009000B3C00000B1C00000AFC00000ADC00000A0
:1000A000ABC00000A9C00000A7C000000600FF0907
:1000B00001A101750825FF150005088501950109B5
:1000C000008102090091020506950285020900815E
:1000D0000285030900810285040900810285050962
:1000E00000810295048502090091028503090091AF
:1000F0000285040900910285050900910295048595
:100100000E09008102090091029508850F090081FE
:10011000029502851009009102950285140900815B
:1001200002851509008102851609008102851709DB
:10013000008102950285200900810295028520092F
:10014000009102852A95070900B102C01201100131
:1001500000000008D804C7EB0300010203010902F4
:100160002200010100C03209040000010300000068
:1001700009211101000122A00007058103080005E3
:10018000040309041603520065006E00E900200014
:100190005400720061007000700000001A035500E6
:1001A000530042002D00550073006500720070007E
:1001B0006F00720074000000060330003100000080
:1001C00011241FBECFEFDAE0DEBFCDBF11E0A0E00B
:1001D000B1E0EAE2F7E102C005900D92A031B1076B
:1001E000D9F711E0A0E1B1E001C01D92A532B1073D
:1001F000E1F7FBD20C94930B03CF362F3E7745B13A
:10020000232F209524233823232B25B99B013695B2
:10021000279520744EB1E22FE095E423AC0156956A
:1002200047952423E22BEEB9272F372F3F79492F0B
:100230009BB1832F809589233423832B8BB9207422
:1002400098B1822F809589232423822B88B9089521
:10025000362F3E7744B1232F209524233823232B98
:1002600024B99B013695279520744DB1E22FE09576
:10027000E423AC01569547952423E22BEDB9272FB3
:10028000372F3F79492F9AB1832F809589233423C3
:10029000832B8AB9207497B1822F809589232423D8
:1002A000822B87B9089523B18CB159B146B190E042
:1002B00080749070880F991F2E77282B30E040743F
:1002C0005F79942F952B80E0282B392BC901089555
:1002D0000895089580910E0190910F01009729F0E3
:1002E000019790930F0180930E010895EF92FF9272
:1002F0000F931F93CF93DF937B01FB0180814423F6
:1003000009F007C1E901853009F495C0863090F401
:10031000823009F474C0833030F4882309F18130CD
:1003200009F0FCC059C0833009F46DC0843009F075
:10033000F5C07FC0853109F4A4C0863138F48E3011
:1003400009F480C0843109F0E9C08BC0873109F419
:10035000B8C0873108F4A5C0803209F0DFC0C6C03C
:10036000A2DFFC0140911401509115014827592743
:10037000809110019091110148235923F0931501A8
:10038000E09314018FB1682F70E0607F707020914E
:10039000160130911701262737278091120190917D
:1003A0001301282339237093170160931601411517
:1003B000510521F42115310509F4B0C0E883F98312
:1003C0004A835B836C831D822E833F838FE0F7011A
:1003D000808388E090E098C085B19BB19072817075
:1003E000982B81E2982795FD02C020E001C022E011
:1003F000892F8170282B288381E090E085C053DF0E
:10040000888399837FC024B18DB15AB147B190E000
:1004100080749070880F991F2E77282B30E04074DD
:100420005F79942F952B80E0282B392B28833983F3
:1004300069C08FB101C080B390E0807F90708883E5
:10044000198260C080911001909111018883998375
:1004500080911201909113018A839B8384E090E044
:1004600053C080917C00807E846080937C0080916A
:100470007A00806480937A0080917A0086FDFCCFB8
:100480002FC080917C00807E856080937C0080916D
:100490007A00806480937A0080917A0086FDFCCF98
:1004A0001FC080917C00807E866080937C0080915C
:1004B0007A00806480937A0080917A0086FDFCCF78
:1004C0000FC080917C00807E876080937C0080914B
:1004D0007A00806480937A0080917A0086FDFCCF58
:1004E000809178008883809179000BC0809188008A
:1004F000909189008A5F888380918A0090918B0017
:100500008A5F898382E090E0F8019183808381E0B3
:1005100006C08A3219F487E090E0F6CF80E0DF91E0
:10052000CF911F910F91FF90EF900895F901413005
:1005300009F0C8C0643009F44BC0653040F4623043
:1005400069F16330C0F5613009F0E7C010C06E306A
:1005500009F45CC06F3020F4653009F0DEC047C09C
:10056000603109F468C0603209F0D7C07BC02081D7
:1005700021FD02C050E001C050E2922F9170952BF6
:1005800025B1892F817080952160822385B98BB137
:1005900090729095806298239BB90895918180E034
:1005A000408150E0738160E0228130E0622B732B48
:1005B000842B952B22CE918180E0408150E0738185
:1005C00060E0228130E0622B732B842B952B40CE90
:1005D00080E04281482B407F81B3342F309538230F
:1005E00080E02081282B2423322B31BB089580E02A
:1005F0004281482B407F80B3342F3095382380E0F0
:100600002081282B2423322B30BB0895918180E058
:10061000208130E0822B932B909311018093100165
:10062000938180E0228130E0822B932B9093130101
:100630008093120108958081807F808380937E0063
:10064000218121FD02C054E601C054EE50937C008C
:1006500010927B0027FF02C087ED01C087E18093E5
:100660007A00089581818B3F38F490E086509F4F47
:1006700090938B0080938A0020812B3F48F4822F37
:1006800090E086509F4F9093890080938800089552
:100690002D3F09F042C080E690E060E670E0ADDDFD
:1006A00080E690E060E670E0D3DD87E893E1909328
:1006B00087008093860082EA809380008BE180939C
:1006C000810008956A3249F58081823531F5818152
:1006D000853619F58281863601F583818C36E9F4F9
:1006E00084818136D1F485818337B9F48681883657
:1006F000A1F4FDD2F89487E797E7909301088093DF
:1007000000082CE088E190E00FB6F894A89580935B
:1007100060000FBE20936000FFCF089580E091E05D
:100720009BC680E091E077D6E2EEF0E080818460C5
:100730008083089584B7877F84BF88E10FB6F894DB
:1007400080936000109260000FBE80E090E020E88F
:100750000FB6F89420936100809361000FBE84B1BE
:10076000817884B985B1817885B93E9846988AB1F7
:1007700080768AB98BB180768BB96E98769880B383
:100780008F7080BB81B38F7081BB2F984798279A59
:100790003F9A5E98569A81B38C7F81BB80B3836009
:1007A00080BB81DD90931501809314018FB190E09F
:1007B000807F907090931701809316011092110121
:1007C00010921001109213011092120187E791E02C
:1007D000909389008093880090938B0080938A0087
:1007E000209A289A559A5D9ADEC2A4DF789480E018
:1007F00091E042D52CD5FBCFDA019330B9F094309B
:1008000030F4913049F0923009F035C00AC091328D
:1008100041F1923281F52AC0ECE4F1E022E130E0CE
:100820002EC0EEE5F1E022E230E029C0813059F03F
:10083000813028F0823069F08330E9F40EC0E0E8BE
:10084000F1E0849103C0E4E8F1E08491282F30E0E6
:1008500016C0ECE9F1E08491F9CFE8EBF1E0849186
:10086000F5CFE0E7F1E029E030E009C0ECEAF0E0A4
:1008700020EA30E004C0E0E0F0E020E030E0ED937A
:10088000FC93C90108959C014091230150912401DA
:100890004617570718F4F90190E043C06115710538
:1008A00011F0AB01F8CF8091E8008E778093E800DB
:1008B00040E050E0F0CF80911C01882309F447C04C
:1008C000853009F446C08091E80083FD44C08091E2
:1008D000E80082FD36C08091E80080FF22C0809150
:1008E000F3009091F200782F60E0292F30E0262B62
:1008F000372B07C081918093F100415050402F5F0A
:100900003F4F4115510519F02830310598F390E01B
:100910002830310509F491E08091E8008E778093CA
:10092000E8004115510539F6992329F60AC080914E
:100930001C01882361F0853061F08091E80083FD1F
:100940000AC08091E80082FFF2CF80E0089582E043
:10095000089583E0089581E008959C016115710573
:1009600029F48091E8008B778093E800F90127C093
:1009700080911C01882399F1853099F18091E800DC
:1009800083FF02C081E008958091E80082FFF0CFEC
:1009900006C08091F10081936150704059F0209120
:1009A000F3008091F200322F20E090E0822B932B15
:1009B000892B79F78091E8008B778093E8006115A7
:1009C0007105B1F606C080911C01882341F0853085
:1009D00041F08091E80080FFF6CF80E0089582E04A
:1009E000089583E008959C014091230150912401D2
:1009F0004617570718F4F90190E044C061157105D6
:100A000011F0AB01F8CF8091E8008E778093E80079
:100A100040E050E0F0CF80911C01882309F448C0E9
:100A2000853009F447C08091E80083FD45C080917E
:100A3000E80082FD37C08091E80080FF23C08091EC
:100A4000F3009091F200782F60E0292F30E0262B00
:100A5000372B08C084918093F1003196415050406B
:100A60002F5F3F4F4115510519F02830310590F3A4
:100A700090E02830310509F491E08091E8008E770C
:100A80008093E8004115510531F6992321F60AC0FB
:100A900080911C01882361F0853061F08091E8002D
:100AA00083FD0AC08091E80082FFF2CF80E00895C4
:100AB00082E0089583E0089581E00895BF92CF9287
:100AC000DF92EF92FF920F931F93CF93DF93182F34
:100AD000092F7B016A01D9D0B82E8823B1F5812F67
:100AE000902F9C01E901C114D10439F0F6018081F5
:100AF0009181E81AF90AC80FD91F00E010E022C05E
:100B00008091E80085FD16C08091E8008E77809383
:100B1000E8009DD3C114D10449F0F6018081918190
:100B2000800F911F9183808385E010C0AED0882311
:100B300049F00CC089918093F1000894E108F10814
:100B40000F5F1F4FE114F104D9F68B2DDF91CF9188
:100B50001F910F91FF90EF90DF90CF90BF9008957D
:100B6000382F282F2EC0822F8F708093E9002317F3
:100B700021F4762F942F50E006C07091EC009091F4
:100B8000ED005091F00091FF1BC08091EB008E7F33
:100B90008093EB008091ED008D7F8093ED0080913C
:100BA000EB0081608093EB007093EC009093ED007C
:100BB0005093F0008091EE0087FD02C080E0089520
:100BC0002F5F273080F23F703093E90081E0089575
:100BD0000F931F93CF93DF93062FEC0110E02AC0F1
:100BE0009881992329F16B81E981FA812C81892FE0
:100BF0008F70873018F5223010F452E001C056E0B3
:100C000040E028E030E003C04F5F220F331F2E1773
:100C10003F07D0F36295660F660F607C991F992796
:100C2000991F692B4295407F452B9ADF882331F02D
:100C30001F5F25961017A0F281E001C080E0DF91D0
:100C4000CF911F910F91089580911D0188239CF4ED
:100C500004C080911C018823B9F08091E80082FFD4
:100C6000F8CF8091E8008B778093E8000895809119
:100C70001C01882349F08091E80080FFF8CF809123
:100C8000E8008E778093E80008954091E400509149
:100C9000E50024E68091EC0080FF24C08091E8000C
:100CA00080FD1EC080911C01882311F482E008950C
:100CB000853011F483E008958091EB0085FF02C038
:100CC00081E008958091E4009091E50084179507F4
:100CD00009F3222311F484E008952150AC01DACF06
:100CE00080E008958091E80082FFDCCFF9CF6BD0DF
:100CF00072D0E0EEF0E0808181608083A8EDB0E00A
:100D00008C918F778C9319BCE7EDF0E080818E7F1A
:100D100080838C918F7E8C9310921B010895EF92AB
:100D2000FF920F931F934FD056D008ED10E0F801BB
:100D300080818F77808380818068808380818F7DB0
:100D4000808319BC10921C011092180110921A0194
:100D50001092190180EEE82EF12CF70180818B7F33
:100D60008083F80180818160808380E060E042E0E0
:100D7000F7DEE1EEF0E080818E7F8083E2EEF0E04E
:100D8000808181608083808188608083F701808199
:100D90008E7F8083F8018081806180831F910F9115
:100DA000FF90EF900895E8EDF0E080818F7E8083E2
:100DB000E7EDF0E080818160808384E082BF81E0A4
:100DC00080931B01ACCFE8EDF0E080818E7F8083C3
:100DD0001092E20008951092DA001092E100089556
:100DE0001F920F920FB60F9211242F933F934F93A0
:100DF0005F936F937F938F939F93AF93BF93EF9383
:100E0000FF938091E10082FF0AC08091E20082FF9F
:100E100006C08091E1008B7F8093E1005BDA8091D6
:100E2000DA0080FF1DC08091D80080FF19C080913A
:100E3000DA008E7F8093DA008091D90080FF0CC0A9
:100E400080E189BD82E189BD09B400FEFDCF81E06A
:100E500080931C013DDA04C019BC10921C0139DAE0
:100E60008091E10080FF18C08091E20080FF14C0F3
:100E70008091E2008E7F8093E2008091E2008061A9
:100E80008093E2008091D80080628093D80019BCE2
:100E900085E080931C01DAD18091E10084FF2FC0AE
:100EA0008091E20084FF2BC080E189BD82E189BD91
:100EB00009B400FEFDCF8091D8008F7D8093D800CB
:100EC0008091E1008F7E8093E1008091E2008F7E2F
:100ED0008093E2008091E20081608093E200809143
:100EE0001801882311F084E007C08091E30087FD9A
:100EF00002C081E001C083E080931C01A7D18091F2
:100F0000E10083FF22C08091E20083FF1EC0809138
:100F1000E100877F8093E10082E080931C011092C2
:100F200018018091E1008E7F8093E1008091E200C2
:100F30008E7F8093E2008091E20080618093E200E6
:100F400080E060E042E00CDE81D1FF91EF91BF9143
:100F5000AF919F918F917F916F915F914F913F9151
:100F60002F910F900FBE0F901F9018951F93DF9336
:100F7000CF93CDB7DEB7AC970FB6F894DEBF0FBEF8
:100F8000CDBFEDE1F1E08091F100819321E0E53208
:100F9000F207C9F7C3DB8091E80083FF3FC180916E
:100FA0001D0130911E01353009F48DC0363040F4FA
:100FB0003130E1F1313070F0333009F02FC136C0FB
:100FC000383009F4FDC0393009F40CC1363009F06D
:100FD00025C19CC0803821F0823809F01FC108C0AB
:100FE0009091190180911A018823B1F0926014C088
:100FF000809121018F70873008F010C18093E90043
:101000008091EB0090E025E0969587952A95E1F791
:10101000982F91701092E9008091E800877F80936B
:10102000E8009093F1001092F100D5C0882319F0E8
:10103000823009F0F3C090E08F719070009721F03A
:10104000029709F0EBC00CC080911F01813009F0BC
:10105000E5C010921A01333081F580931A012DC03A
:1010600080911F01882349F5209121012F70822F43
:101070008150863008F0D2C02093E9008091EB00C7
:1010800080FF1BC0333021F48091EB00806213C0DD
:101090008091EB0080618093EB0081E090E002C0E2
:1010A000880F991F2A95E2F78093EA001092EA00D0
:1010B0008091EB0088608093EB001092E9008091B2
:1010C000E800877F8BC0882309F0A8C010911F011A
:1010D0001F778091E3008078812B8093E3008091DB
:1010E000E800877F8093E800AFDD8091E80080FF13
:1010F000FCCF8091E30080688093E300112311F41A
:1011000082E001C083E080931C0188C08058823057
:1011100008F084C080911F019091200123E08C3D54
:10112000920709F033C083E08C838AE28B837FB718
:10113000F894DE0115966EE040E050E011E2E62FF3
:10114000F0E010935700849140FF03C082958F70A8
:101150006F5F8F70282F30E08A3018F0C901C79672
:1011600002C0C901C0968D939D934F5F5F4F44317C
:10117000510529F77FBF8091E800877F8093E800C1
:10118000CE0103966AE270E07EDB14C0609121011B
:1011900070912201AE014F5F5F4F2EDBBC010097C3
:1011A00009F43CC08091E800877F8093E800898142
:1011B0009A8119DC8091E8008B778093E8002EC03B
:1011C000803861F58091E800877F8093E800809106
:1011D00018018093F1008091E8008E778093E800F9
:1011E00033DD1CC08823D1F490911F019230B0F4FC
:1011F0008091E800877F8093E8009093180124DDB8
:1012000080911801882331F48091E30087FD02C0AA
:1012100081E001C084E080931C0183DA8091E800C2
:1012200083FF0AC08091E800877F8093E800809167
:10123000EB0080628093EB00AC960FB6F894DEBFB3
:101240000FBECDBFCF91DF911F91089508951F93D9
:1012500080911C01882371F01091E9008091EC00CD
:101260001092E9008091E80083FF01C07FDE1F70CB
:101270001093E9001F9108954F925F926F927F92B1
:101280008F929F92AF92BF92CF92DF92EF92FF9296
:101290000F931F93DF93CF9300D00F92CDB7DEB79C
:1012A0007C016DB67EB680911C01843009F09AC035
:1012B0002091E4003091E500F70182859385821743
:1012C000930709F48FC081818F708093E90080912A
:1012D000E80085FF87C05DB64EB6408550E08DB70B
:1012E0009EB7841B950B0FB6F8949EBF0FBE8DBFA3
:1012F0000DB71EB70F5F1F4F19821B821A82C02EB7
:10130000912EC80160E070E050E006D2C701BE0136
:101310006F5F7F4F40E098018E010E5F1F4F0E946C
:101320007601882EF70184859585892B19F4AA24E6
:10133000BB240BC020E0F70186859785892B09F037
:1013400021E081E02827A22EBB24F7010681178126
:101350000115110511F4DD2412C04A815B818C2D29
:10136000992DB801C3D1DD24009711F0DD24D39469
:10137000F7014085C8016C2D792D50E0C4D18A81D8
:101380009B81892B01F1882021F4DD2011F4AB2809
:10139000D1F0F701848595859787868781818F7045
:1013A0008093E9008981882311F08093F1006A819C
:1013B0007B818C2D992D40E050E080DB8091E8000E
:1013C0008E778093E8008091E4009091E500F7012A
:1013D00093878287252D342DC9010FB6F8949EBFBF
:1013E0000FBE8DBF0FB6F8947EBE0FBE6DBE0F90C0
:1013F0000F900F90CF91DF911F910F91FF90EF9081
:10140000DF90CF90BF90AF909F908F907F906F9024
:101410005F904F900895CF93DF93DC010996FC0114
:1014200087E0EF0119928A95E9F781E019968C938C
:10143000199784EF91E01D969C938E931C9783E0FF
:1014400014968C931497CD01019661E0C1DB811154
:1014500081E0DF91CF9108956F927F928F929F925A
:10146000AF92BF92CF92DF92EF92FF920F931F93B2
:10147000DF93CF9300D00F92CDB7DEB76C016DB67E
:101480007EB68091E80083FF1AC1F601808190E06A
:1014900020912101309122012817390709F00FC14D
:1014A00080911E01833009F4B2C0843030F4813061
:1014B00071F0823009F003C1E6C08A3009F4CBC074
:1014C0008B3009F4B5C0893009F0F9C05CC0809157
:1014D0001D01813A09F0F3C09DB68EB61B821A82B7
:1014E00080911F01109120018983F601408550E011
:1014F0008DB79EB7841B950B0FB6F8949EBF0FBE99
:101500008DBFEDB6FEB60894E11CF11CBE2CAF2CCD
:10151000C70160E070E050E0FFD01150C601BE018D
:101520006F5F7F4F412F97018E010E5F1F4F0E940B
:101530007601F601268137812115310529F0408594
:10154000C901B70150E0DFD01092E9008091E800B6
:10155000877F8093E8008981882311F08093F100D0
:101560006A817B818B2D9A2D8ED98091E8008B77B3
:101570008093E800292D382DC9010FB6F8949EBF3D
:101580000FBE8DBF9CC080911D01813209F097C0B4
:101590009DB68EB60091230110912401A0901F01E9
:1015A000B09020018DB79EB7801B910B0FB6F894B9
:1015B0009EBF0FBE8DBFEDB6FEB60894E11CF11CB8
:1015C0008091E800877F8093E800C701B801C5D902
:1015D0008091E8008E778093E80080E090E0AA2078
:1015E00011F081E090E0BA94E80EF91E081B190B87
:1015F000C6016A2D4B2D97010E949602892D982DC8
:101600009C010FB6F8943EBF0FBE2DBF58C080910D
:101610001D01813A09F053C08091E800877F8093D3
:10162000E8008091E80080FFFCCFF60181853FC093
:1016300080911D01813209F042C08091E800877FCE
:101640008093E80001DB90E080911F01811191E01F
:10165000F601918734C080911D01813281F580911E
:10166000E800877F8093E800EFDA80911F01909176
:101670002001807036E0969587953A95E1F7F6015E
:10168000958784871CC080911D01813AC1F48091A7
:10169000E800877F8093E8008091E80080FFFCCF1E
:1016A000F60184859585969587959695879580937F
:1016B000F1008091E8008E778093E800C5DA0FB6DC
:1016C000F8947EBE0FBE6DBE0F900F900F90CF911D
:1016D000DF911F910F91FF90EF90DF90CF90BF901F
:1016E000AF909F908F907F906F900895FB01DC01E9
:1016F00004C08D910190801921F441505040C8F7E9
:10170000881B990B0895FB01DC0102C001900D922A
:1017100041505040D8F70895DC0101C06D9341500D
:0A1720005040E0F70895F894FFCF61
:10172A00008108000001000008000000000000001D
:00000001FF
