:10000000D7C00000F1C00000EFC00000EDC000004C
:10001000EBC00000E9C00000E7C00000E5C0000040
:10002000E3C00000E1C00000A0C60000DDC0000089
:10003000DBC00000D9C00000D7C00000D5C0000060
:10004000D3C00000D1C00000CFC00000CDC0000070
:10005000CBC00000C9C00000C7C00000C5C0000080
:10006000C3C00000C1C00000BFC00000BDC0000090
:10007000BBC00000B9C00000B7C00000B5C00000A0
:10008000B3C00000B1C00000AFC00000ADC00000B0
:10009000ABC00000A9C00000A7C00000A5C00000C0
:1000A000A3C00000A1C000009FC000000600FF091F
:1000B00001A101750825FF150005088501950109B5
:1000C000008102090091020506950285020900815E
:1000D0000285030900810285040900810285050962
:1000E00000810295048502090091028503090091AF
:1000F0000285040900910285050900910295048595
:100100000E09008102090091029508850F090081FE
:10011000029502851009009102950285140900815B
:1001200002851509008102851609008102851709DB
:10013000008102852A95070900B102C01201100151
:1001400000000008D804C7EB020001020301090205
:100150002200010100C03209040000010300000078
:100160000921110100012290000705810308000503
:10017000040309041603520065006E00E900200024
:100180005400720061007000700000001A035500F6
:10019000530042002D00550073006500720070008E
:1001A0006F00720074000000060330003100000090
:1001B00011241FBECFEFDAE0DEBFCDBF11E0A0E01B
:1001C000B1E0E4EBF6E102C005900D92A031B10779
:1001D000D9F711E0A0E1B1E001C01D92A532B1074D
:1001E000E1F7C8D20C94580B0BCF23B18CB159B1A5
:1001F00046B190E080749070880F991F2E77282B5D
:1002000030E040745F79942F952B80E0282B392BB8
:10021000C90108950895089580910E0190910F01EC
:10022000009729F0019790930F0180930E01089594
:10023000EF92FF920F931F93CF93DF937B01FB010C
:100240008081442309F0F8C0E901853009F492C0A7
:10025000863090F4823009F471C0833030F4882302
:10026000F1F0813009F0EDC056C0833009F46AC066
:10027000843009F0E6C07CC0853109F4A1C0863124
:1002800038F48E3009F47DC0843109F0DAC088C0BA
:10029000863109F4A5C0873109F0D3C0B1C0A5DF0C
:1002A000FC01409114015091150148275927809174
:1002B00010019091110148235923F0931501E09307
:1002C00014018FB1682F70E0607F7070209116016B
:1002D0003091170126273727809112019091130141
:1002E0002823392370931701609316014115510596
:1002F00021F42115310509F4A4C0E883F9834A8368
:100300005B836C831D822E833F838FE0F7018083A4
:1003100088E090E08CC085B19BB190728170982B81
:1003200081E2982795FD02C020E001C022E0892FDC
:100330008170282B288381E090E079C056DF888384
:10034000998373C024B18DB15AB147B190E08074E4
:100350009070880F991F2E77282B30E040745F79BA
:10036000942F952B80E0282B392B288339835DC06F
:100370008FB101C080B390E0807F90708883198234
:1003800054C08091100190911101888399838091CC
:100390001201909113018A839B8384E090E047C00F
:1003A00080917C00807E846080937C0080917A00C4
:1003B000806480937A0080917A0086FDFCCF2FC004
:1003C00080917C00807E856080937C0080917A00A3
:1003D000806480937A0080917A0086FDFCCF1FC0F4
:1003E00080917C00807E866080937C0080917A0082
:1003F000806480937A0080917A0086FDFCCF0FC0E4
:1004000080917C00807E876080937C0080917A0060
:10041000806480937A0080917A0086FDFCCF809181
:100420007800888380917900898382E090E0F801E8
:100430009183808381E006C08A3219F487E090E0DE
:10044000F6CF80E0DF91CF911F910F91FF90EF9059
:100450000895D901413009F0F9C0643009F4A2C00F
:10046000653048F4623041F1633008F060C06130BB
:1004700009F022C10AC06E3009F4B6C0603109F437
:10048000CDC0653009F018C19EC02C9121FD02C07D
:1004900040E001C040E2922F9170942B25B1892F4A
:1004A000817080952160822385B98BB1907290957F
:1004B000806298239BB9089511969C91119780E0D2
:1004C000EC91F0E0E82BF92B13969C91139780E0C8
:1004D00012964C9150E0482B592B942F9E7725B1C2
:1004E000892F809582239E23892B85B9CA019695F1
:1004F000879580742EB1682F609562239F01369591
:1005000027958223682B6EB9952F252F2F793BB124
:10051000822F809583232F23822B8BB9907428B14F
:10052000892F809582239F23892B88B9089511965E
:100530009C91119780E0EC91F0E0E82BF92B139659
:100540009C91139780E012964C9150E0482B592BC8
:10055000942F9E7724B1892F809582239E23892B07
:1005600084B9CA019695879580742DB1682F6095DE
:1005700062239F01369527958223682B6DB9952FAD
:10058000252F2F793AB1822F809583232F23822B19
:100590008AB9907427B1892F809582239F23892B54
:1005A00087B9089580E012964C911297482B407FAE
:1005B00081B3342F3095382380E02C91282B2423CD
:1005C000322B31BB089580E012964C911297482B44
:1005D000407F80B3342F3095382380E02C91282B36
:1005E0002423322B30BB089511969C91119780E003
:1005F0002C9130E0822B932B90931101809310016A
:1006000013969C91139780E012962C9130E0822BE8
:10061000932B909313018093120108958C91807F06
:100620008C9380937E0011962C9121FD02C044E6AC
:1006300001C044EE40937C0010927B0027FF02C073
:1006400087ED01C087E180937A0008956A32A1F5B1
:100650008C91823589F511968C911197853661F5CB
:1006600012968C911297863639F513968C911397C2
:100670008C3611F514968C9114978136E9F4159601
:100680008C9115978337C1F416968C918836A1F416
:10069000F3D2F89487E797E79093010880930008D6
:1006A0002CE088E190E00FB6F894A8958093600064
:1006B0000FBE20936000FFCF089580E091E091C6C7
:1006C00080E091E06DD6E2EEF0E08081846080838E
:1006D000089584B7877F84BF88E10FB6F89480932C
:1006E0006000109260000FBE80E090E020E80FB63E
:1006F000F89420936100809361000FBE84B18178EB
:1007000084B985B1817885B93E9846988AB180765A
:100710008AB98BB180768BB96E98769880B38F70DA
:1007200080BB81B38F7081BB2F984798279A3F9ADF
:100730005E98569A81B38C7F81BB80B3836080BB07
:1007400054DD90931501809314018FB190E0807F68
:1007500090709093170180931601109211011092DE
:1007600010011092130110921201209A289A559AA2
:100770005D9ADEC2AEDF789480E091E042D52CD560
:10078000FBCFDA019330B9F0943030F4913049F076
:10079000923009F035C00AC0913241F1923281F5B0
:1007A0002AC0ECE3F1E022E130E02EC0EEE4F1E01B
:1007B00022E230E029C0813059F0813028F08230C7
:1007C00069F08330E9F40EC0E0E7F1E0849103C002
:1007D000E4E7F1E08491282F30E016C0ECE8F1E086
:1007E0008491F9CFE8EAF1E08491F5CFE0E6F1E019
:1007F00029E030E009C0ECEAF0E020E930E004C094
:10080000E0E0F0E020E030E0ED93FC93C9010895D2
:100810009C0140912301509124014617570718F479
:10082000F90190E043C06115710511F0AB01F8CFFB
:100830008091E8008E778093E80040E050E0F0CFB0
:1008400080911C01882309F447C0853009F446C013
:100850008091E80083FD44C08091E80082FD36C0AD
:100860008091E80080FF22C08091F3009091F20017
:10087000782F60E0292F30E0262B372B07C081919D
:100880008093F100415050402F5F3F4F411551057B
:1008900019F02830310598F390E02830310509F43B
:1008A00091E08091E8008E778093E8004115510532
:1008B00039F6992329F60AC080911C01882361F03A
:1008C000853061F08091E80083FD0AC08091E800E6
:1008D00082FFF2CF80E0089582E0089583E00895DA
:1008E00081E008959C016115710529F48091E8006B
:1008F0008B778093E800F90127C080911C01882341
:1009000099F1853099F18091E80083FF02C081E080
:1009100008958091E80082FFF0CF06C08091F10039
:1009200081936150704059F02091F3008091F20062
:10093000322F20E090E0822B932B892B79F7809146
:10094000E8008B778093E80061157105B1F606C069
:1009500080911C01882341F0853041F08091E800AE
:1009600080FFF6CF80E0089582E0089583E0089547
:100970009C0140912301509124014617570718F418
:10098000F90190E044C06115710511F0AB01F8CF99
:100990008091E8008E778093E80040E050E0F0CF4F
:1009A00080911C01882309F448C0853009F447C0B0
:1009B0008091E80083FD45C08091E80082FD37C04A
:1009C0008091E80080FF23C08091F3009091F200B5
:1009D000782F60E0292F30E0262B372B08C0849138
:1009E0008093F1003196415050402F5F3F4F4115A9
:1009F000510519F02830310590F390E02830310589
:100A000009F491E08091E8008E778093E800411529
:100A1000510531F6992321F60AC080911C018823E3
:100A200061F0853061F08091E80083FD0AC080911B
:100A3000E80082FFF2CF80E0089582E0089583E02D
:100A4000089581E00895BF92CF92DF92EF92FF92D6
:100A50000F931F93CF93DF93182F092F7B016A0108
:100A6000D9D0B82E8823B1F5812F902F9C01E901B0
:100A7000C114D10439F0F60180819181E81AF90A94
:100A8000C80FD91F00E010E022C08091E80085FD6A
:100A900016C08091E8008E778093E8009DD3C11442
:100AA000D10449F0F60180819181800F911F9183DB
:100AB000808385E010C0AED0882349F00CC08991B6
:100AC0008093F1000894E108F1080F5F1F4FE114D3
:100AD000F104D9F68B2DDF91CF911F910F91FF90EB
:100AE000EF90DF90CF90BF900895382F282F2EC021
:100AF000822F8F708093E900231721F4762F942F93
:100B000050E006C07091EC009091ED005091F00023
:100B100091FF1BC08091EB008E7F8093EB00809152
:100B2000ED008D7F8093ED008091EB0081608093DC
:100B3000EB007093EC009093ED005093F0008091E7
:100B4000EE0087FD02C080E008952F5F273080F21D
:100B50003F703093E90081E008950F931F93CF9386
:100B6000DF93062FEC0110E02AC09881992329F128
:100B70006B81E981FA812C81892F8F70873018F57C
:100B8000223010F452E001C056E040E028E030E0AE
:100B900003C04F5F220F331F2E173F07D0F362951C
:100BA000660F660F607C991F9927991F692B4295E4
:100BB000407F452B9ADF882331F01F5F2596101761
:100BC000A0F281E001C080E0DF91CF911F910F91F1
:100BD000089580911D0188239CF404C080911C011C
:100BE0008823B9F08091E80082FFF8CF8091E80077
:100BF0008B778093E800089580911C01882349F049
:100C00008091E80080FFF8CF8091E8008E77809394
:100C1000E80008954091E4005091E50024E68091B9
:100C2000EC0080FF24C08091E80080FD1EC0809110
:100C30001C01882311F482E00895853011F483E0CB
:100C400008958091EB0085FF02C081E008958091B6
:100C5000E4009091E5008417950709F3222311F42D
:100C600084E008952150AC01DACF80E008958091AE
:100C7000E80082FFDCCFF9CF6BD072D0E0EEF0E07D
:100C8000808181608083A8EDB0E08C918F778C9318
:100C900019BCE7EDF0E080818E7F80838C918F7EA0
:100CA0008C9310921B010895EF92FF920F931F9364
:100CB0004FD056D008ED10E0F80180818F77808307
:100CC00080818068808380818F7D808319BC1092B1
:100CD0001C011092180110921A011092190180EE55
:100CE000E82EF12CF70180818B7F8083F8018081D1
:100CF0008160808380E060E042E0F7DEE1EEF0E0DA
:100D000080818E7F8083E2EEF0E08081816080834D
:100D1000808188608083F70180818E7F8083F801E5
:100D20008081806180831F910F91FF90EF900895E3
:100D3000E8EDF0E080818F7E8083E7EDF0E0808158
:100D40008160808384E082BF81E080931B01ACCF0F
:100D5000E8EDF0E080818E7F80831092E2000895BC
:100D60001092DA001092E10008951F920F920FB6D0
:100D70000F9211242F933F934F935F936F937F9321
:100D80008F939F93AF93BF93EF93FF938091E10075
:100D900082FF0AC08091E20082FF06C08091E100DC
:100DA0008B7F8093E10038DA8091DA0080FF1DC0EC
:100DB0008091D80080FF19C08091DA008E7F8093E7
:100DC000DA008091D90080FF0CC080E189BD82E10A
:100DD00089BD09B400FEFDCF81E080931C011ADAC1
:100DE00004C019BC10921C0116DA8091E10080FF4A
:100DF00018C08091E20080FF14C08091E2008E7FD5
:100E00008093E2008091E20080618093E200809113
:100E1000D80080628093D80019BC85E080931C01C3
:100E2000DAD18091E10084FF2FC08091E20084FF3D
:100E30002BC080E189BD82E189BD09B400FEFDCFF0
:100E40008091D8008F7D8093D8008091E1008F7EC3
:100E50008093E1008091E2008F7E8093E200809198
:100E6000E20081608093E20080911801882311F0F4
:100E700084E007C08091E30087FD02C081E001C0EB
:100E800083E080931C01A7D18091E10083FF22C001
:100E90008091E20083FF1EC08091E100877F8093F4
:100EA000E10082E080931C01109218018091E10022
:100EB0008E7F8093E1008091E2008E7F8093E2003C
:100EC0008091E20080618093E20080E060E042E097
:100ED0000CDE81D1FF91EF91BF91AF919F918F91E6
:100EE0007F916F915F914F913F912F910F900FBE26
:100EF0000F901F9018951F93DF93CF93CDB7DEB758
:100F0000AC970FB6F894DEBF0FBECDBFEDE1F1E0B8
:100F10008091F100819321E0E532F207C9F7CDDB42
:100F20008091E80083FF3FC180911D0130911E0137
:100F3000353009F48DC0363040F43130E1F13130D4
:100F400070F0333009F02FC136C0383009F4FDC0DD
:100F5000393009F40CC1363009F025C19CC0803805
:100F600021F0823809F01FC108C0909119018091C9
:100F70001A018823B1F0926014C0809121018F7012
:100F8000873008F010C18093E9008091EB0090E079
:100F900025E0969587952A95E1F7982F9170109204
:100FA000E9008091E800877F8093E8009093F1004A
:100FB0001092F100D5C0882319F0823009F0F3C0F7
:100FC00090E08F719070009721F0029709F0EBC0CC
:100FD0000CC080911F01813009F0E5C010921A0108
:100FE000333081F580931A012DC080911F01882331
:100FF00049F5209121012F70822F8150863008F011
:10100000D2C02093E9008091EB0080FF1BC03330F9
:1010100021F48091EB00806213C08091EB0080612D
:101020008093EB0081E090E002C0880F991F2A9521
:10103000E2F78093EA001092EA008091EB0088606A
:101040008093EB001092E9008091E800877F8BC0CD
:10105000882309F0A8C010911F011F778091E30039
:101060008078812B8093E3008091E800877F8093D4
:10107000E800AFDD8091E80080FFFCCF8091E300C5
:1010800080688093E300112311F482E001C083E0C3
:1010900080931C0188C08058823008F084C0809101
:1010A0001F019091200123E08C3D920709F033C08D
:1010B00083E08C838AE28B837FB7F894DE011596F8
:1010C0006EE040E050E011E2E62FF0E010935700B0
:1010D000849140FF03C082958F706F5F8F70282FBF
:1010E00030E08A3018F0C901C79602C0C901C09625
:1010F0008D939D934F5F5F4F4431510529F77FBF1B
:101100008091E800877F8093E800CE0103966AE231
:1011100070E07EDB14C06091210170912201AE016C
:101120004F5F5F4F2EDBBC01009709F43CC08091FC
:10113000E800877F8093E80089819A8119DC80919B
:10114000E8008B778093E8002EC0803861F58091AD
:10115000E800877F8093E800809118018093F10078
:101160008091E8008E778093E80033DD1CC08823EF
:10117000D1F490911F019230B0F48091E800877F04
:101180008093E8009093180124DD80911801882352
:1011900031F48091E30087FD02C081E001C084E06A
:1011A00080931C018DDA8091E80083FF0AC0809152
:1011B000E800877F8093E8008091EB008062809355
:1011C000EB00AC960FB6F894DEBF0FBECDBFCF914B
:1011D000DF911F91089508951F9380911C0188232A
:1011E00071F01091E9008091EC001092E90080917B
:1011F000E80083FF01C07FDE1F701093E9001F919C
:1012000008954F925F926F927F928F929F92AF92CA
:10121000BF92CF92DF92EF92FF920F931F93DF93D3
:10122000CF9300D00F92CDB7DEB77C016DB67EB6FE
:1012300080911C01843009F09AC02091E400309123
:10124000E500F701828593858217930709F48FC023
:1012500081818F708093E9008091E80085FF87C0CD
:101260005DB64EB6408550E08DB79EB7841B950B9A
:101270000FB6F8949EBF0FBE8DBF0DB71EB70F5FA0
:101280001F4F19821B821A82C02E912EC80160E066
:1012900070E050E006D2C701BE016F5F7F4F40E0B3
:1012A00098018E010E5F1F4F0E941801882EF701D2
:1012B00084859585892B19F4AA24BB240BC020E0D2
:1012C000F70186859785892B09F021E081E02827A1
:1012D000A22EBB24F701068117810115110511F417
:1012E000DD2412C04A815B818C2D992DB801C3D1B8
:1012F000DD24009711F0DD24D394F7014085C80167
:101300006C2D792D50E0C4D18A819B81892B01F10C
:10131000882021F4DD2011F4AB28D1F0F701848579
:1013200095859787868781818F708093E900898171
:10133000882311F08093F1006A817B818C2D992D97
:1013400040E050E080DB8091E8008E778093E800F9
:101350008091E4009091E500F70193878287252D25
:10136000342DC9010FB6F8949EBF0FBE8DBF0FB6C6
:10137000F8947EBE0FBE6DBE0F900F900F90CF9170
:10138000DF911F910F91FF90EF90DF90CF90BF9072
:10139000AF909F908F907F906F905F904F90089547
:1013A000CF93DF93DC010996FC0187E0EF011992EE
:1013B0008A95E9F781E019968C93199784EF91E06B
:1013C0001D969C938E931C9783E014968C93149790
:1013D000CD01019661E0C1DB811181E0DF91CF9108
:1013E00008956F927F928F929F92AF92BF92CF9209
:1013F000DF92EF92FF920F931F93DF93CF9300D072
:101400000F92CDB7DEB76C016DB67EB68091E80065
:1014100083FF1AC1F601808190E020912101309173
:1014200022012817390709F00FC180911E0183306E
:1014300009F4B2C0843030F4813071F0823009F0A8
:1014400003C1E6C08A3009F4CBC08B3009F4B5C0C3
:10145000893009F0F9C05CC080911D01813A09F022
:10146000F3C09DB68EB61B821A8280911F01109127
:1014700020018983F601408550E08DB79EB7841B1B
:10148000950B0FB6F8949EBF0FBE8DBFEDB6FEB69E
:101490000894E11CF11CBE2CAF2CC70160E070E089
:1014A00050E0FFD01150C601BE016F5F7F4F412F4A
:1014B00097018E010E5F1F4F0E941801F6012681D1
:1014C00037812115310529F04085C901B70150E068
:1014D000DFD01092E9008091E800877F8093E800D8
:1014E0008981882311F08093F1006A817B818B2DA3
:1014F0009A2D8ED98091E8008B778093E800292D72
:10150000382DC9010FB6F8949EBF0FBE8DBF9CC089
:1015100080911D01813209F097C09DB68EB6009171
:10152000230110912401A0901F01B09020018DB7DC
:101530009EB7801B910B0FB6F8949EBF0FBE8DBF58
:10154000EDB6FEB60894E11CF11C8091E800877F9F
:101550008093E800C701B801C5D98091E8008E7773
:101560008093E80080E090E0AA2011F081E090E014
:10157000BA94E80EF91E081B190BC6016A2D4B2DF3
:1015800097010E942902892D982D9C010FB6F8948D
:101590003EBF0FBE2DBF58C080911D01813A09F09A
:1015A00053C08091E800877F8093E8008091E80035
:1015B00080FFFCCFF60181853FC080911D01813203
:1015C00009F042C08091E800877F8093E80001DB4A
:1015D00090E080911F01811191E0F601918734C064
:1015E00080911D01813281F58091E800877F809391
:1015F000E800EFDA80911F0190912001807036E0C1
:10160000969587953A95E1F7F601958784871CC0F2
:1016100080911D01813AC1F48091E800877F809319
:10162000E8008091E80080FFFCCFF6018485958575
:1016300096958795969587958093F1008091E8001F
:101640008E778093E800C5DA0FB6F8947EBE0FBEA1
:101650006DBE0F900F900F90CF91DF911F910F9162
:10166000FF90EF90DF90CF90BF90AF909F908F90C2
:101670007F906F900895FB01DC0104C08D91019073
:10168000801921F441505040C8F7881B990B0895E8
:10169000FB01DC0102C001900D9241505040D8F78F
:1016A0000895DC0101C06D9341505040E0F708956A
:0416B000F894FFCFDC
:1016B4000081080000010000080000000000000094
:00000001FF
