:10000000FBC0000015C1000013C1000011C10000B9
:100010000FC100000DC100000BC1000009C10000AC
:1000200007C1000005C100000C94420B01C1000093
:10003000FFC00000FDC00000FBC00000F9C00000D0
:10004000F7C00000F5C00000F3C00000F1C00000E0
:10005000EFC00000EDC00000EBC00000E9C00000F0
:10006000E7C00000E5C00000E3C00000E1C0000000
:10007000DFC00000DDC00000DBC00000D9C0000010
:1000800068C10000D5C00000D3C00000D1C000008E
:10009000CFC00000CDC00000CBC00000C9C0000030
:1000A000C7C00000C5C00000C3C000000600FF09B3
:1000B00001A101750825FF150005088501950109B5
:1000C000008102090091020506950285020900815E
:1000D0000285030900810285040900810285050962
:1000E00000810295048502090091028503090091AF
:1000F0000285040900910285050900910295048595
:100100000E09008102090091029508850F090081FE
:10011000029502851009009102950285140900815B
:1001200002851509008102851609008102851709DB
:100130000081029502852009008102090091029543
:100140000285F809009102950185F90900910209DB
:1001500000810295048522090091029504852309F6
:1001600000910295028521090091029507852409D5
:10017000008102852A95070900B102852B950109A6
:1001800000B102C01201100100000008D804C7EB42
:1001900005000102030109022200010100C0320929
:1001A000040000010300000009211101000122D810
:1001B0000007058103080005040309041603520023
:1001C00065006E00E90020005400720061007000BC
:1001D000700000001A035500530042002D00550026
:1001E00073006500720070006F0072007400000000
:1001F000060330003100000011241FBECFEFDAE00B
:10020000DEBFCDBF11E0A0E0B1E0E8EDFFE102C04C
:1002100005900D92A031B107D9F711E0A0E1B1E04E
:1002200001C01D92A735B107E1F7CCD30C94EA0FBA
:10023000E7CEFB0190917C008F71907E892B80939B
:100240007C0080917A00806480937A0080917A00AB
:1002500086FDFCCF80917800808380917900818336
:100260000895362F3E7745B1232F20952423382338
:10027000232B25B99B013695279520744EB1E22F8B
:10028000E095E423AC01569547952423E22BEEB983
:10029000272F372F3F79492F9BB1832F80958923B3
:1002A0003423832B8BB9207498B1822F80958923B6
:1002B0002423822B88B90895362F3E7744B1232F0B
:1002C000209524233823232B24B99B013695279589
:1002D00020744DB1E22FE095E423AC01569547958B
:1002E0002423E22BEDB9272F372F3F79492F9AB1DD
:1002F000832F809589233423832B8AB9207497B167
:10030000822F809589232423822B87B9089523B1D6
:100310008CB159B146B190E080749070880F991FEC
:100320002E77282B30E040745F79942F952B80E056
:10033000282B392BC9010895089580910E019091C1
:100340000F01009729F0019790930F0180930E0100
:10035000089578941F920F920FB60F9211242F9345
:100360003F934F935F936F937F938F939F93AF933D
:10037000BF93EF93FF9328D580912601882321F026
:1003800081508093260101C008D5FF91EF91BF9164
:10039000AF919F918F917F916F915F914F913F911D
:1003A0002F910F900FBE0F901F901895289A5D9A6D
:1003B000F4C4CF93DF93E901413009F03AC16031D1
:1003C00009F493C06131A8F4633009F44DC064307E
:1003D00030F4613021F1623009F06CC137C0653012
:1003E00009F45FC0653008F44DC06E3009F062C199
:1003F00067C0623209F401C1633238F4603209F433
:100400008AC0613209F056C1ECC0683F09F4D0C01F
:10041000693F09F4D8C0633209F04CC1FCC028819F
:1004200021FD02C050E001C050E2922F9170952B47
:1004300025B1892F817080952160822385B98BB188
:1004400090729095806298239BB934C1998180E025
:10045000488150E07B8160E02A8130E0622B732B81
:10046000842B952BFEDE26C1998180E0488150E0E7
:100470007B8160E02A8130E0622B732B842B952BEB
:100480001BDF18C180E04A81482B407F81B3342FA5
:100490003095382380E02881282B2423322B31BB50
:1004A00009C180E04A81482B407F80B3342F3095CA
:1004B000382380E02881282B2423322B30BBFAC03C
:1004C000998180E0288130E0822B932B9093110159
:1004D000809310019B8180E02A8130E0822B932B56
:1004E0009093130180931201E5C099818881807FE8
:1004F00080937E0091FD02C080E601C080EE809373
:100500007C0010927B0097FF02C087ED01C087E15D
:1005100080937A00CFC088818B3F40F490E0865072
:100520009F4F90938900809388001AC08D3FC1F43B
:1005300080E090E060E270E094DE80E690E060E2CF
:1005400070E0BADE87E893E190938700809386009D
:10055000809180008268809380008BE1809381008D
:1005600029812B3F48F4822F90E086509F4F909333
:100570008B0080938A009EC02D3F09F09BC080E0D5
:1005800090E060E470E06DDE80E690E060E470E0B2
:1005900093DE87E893E190938700809386008091B3
:1005A00080008262809380008BE18093810082C012
:1005B000998180E0288130E0822B932B9093280151
:1005C0008093270177C0E0912701F09128012881CD
:1005D000CF018397823B910508F06CC02083118284
:1005E00069C0E5D3882309F465C082E380932601BE
:1005F00089815DD2888138D25DC0D9D3882309F43E
:1006000059C082E38093260188816A81B2D28981B0
:100610006B81C7D24FC0CBD3882309F44BC082E390
:100620008093260188816A81D4D289816B81E9D245
:1006300041C06A3221F06B3209F03CC02AC0888187
:10064000823539F58981853621F58A81863609F525
:100650008B818C36F1F48C818136D9F48D8183378E
:10066000C1F48E818836A9F498D393D7F89487E79C
:1006700097E790930108809300082CE088E190E0D0
:100680000FB6F894A895809360000FBE2093600089
:10069000FFCF888180FF0BC08AD3882309F416D34B
:1006A00086D3882339F082E38093260103C0109219
:1006B000260173D3DF91CF910895EF92FF920F93AC
:1006C0001F93CF93DF937B01442309F0FCC0E90122
:1006D000FB0180818E3009F4A2C08F30A8F48230F3
:1006E00009F478C0833030F4882339F1813009F07F
:1006F000EAC05FC0843009F487C0843008F46EC05B
:10070000853009F0E0C089C0873109F49DC0883187
:1007100050F4853109F494C0863108F093C08431D7
:1007200009F0D1C08BC0843209F4B3C0893F09F409
:100730009CC0803209F0C7C08BC0E9DDFC0140914C
:10074000140150911501482759278091100190916B
:10075000110148235923F0931501E09314018FB13F
:10076000682F70E0607F7070209116013091170142
:1007700026273727809112019091130128233923CE
:1007800070931701609316014115510521F421154D
:10079000310509F498C0E883F9834A835B836C834D
:1007A0001D822E833F838FE0F701808388E090E0F5
:1007B0006BC085B19BB190728170982B81E29827B4
:1007C00095FD02C020E001C022E0892F8170282B16
:1007D000288358C09CDD888399831CC024B18DB1C7
:1007E0005AB147B190E080749070880F991F2E77AE
:1007F000282B30E040745F79942F952B80E0282BD4
:10080000392B2883398306C08FB190E0807F9070A8
:100810008883198282E090E037C080B3F6CF809160
:100820001001909111018883998380911201909118
:1008300013018A839B8384E090E026C084E005C096
:1008400085E003C086E001C087E0BE01F2DCE2CFB4
:1008500080918800909189008A5F888380918A00C6
:1008600090918B008A5F8983D5CFE0912701F09129
:100870002801CF018397823B910510F080E001C0F1
:100880008081888381E090E0F8019183808381E01A
:100890001BC08DD2882399F0D4D18E83CFD18D8384
:1008A00058D18C8343D18B8331D18A8321D18983E1
:1008B000CBD18068888382E38093260101C01882AF
:1008C00087E090E0E1CF80E0DF91CF911F910F9121
:1008D000FF90EF90089580E091E00C94830E80E00B
:1008E00091E00E94620EE2EEF0E0808184608083FD
:1008F000089584B7877F84BF88E10FB6F89480930A
:100900006000109260000FBE80E090E020E80FB61B
:10091000F89420936100809361000FBE84B18178C8
:1009200084B985B1817885B93E9846988AB1807638
:100930008AB98BB180768BB96E98769880B38F70B8
:1009400080BB81B38F7081BB2F984798279A3F9ABD
:100950005E98569A81B38C7F81BB80B3836080BBE5
:10096000D6DC90931501809314018FB190E0807FC5
:1009700090709093170180931601109211011092BC
:100980001001109213011092120187E791E09093E9
:1009900089008093880090938B0080938A00209A2E
:1009A000289A559A5D9A8FE097E2909399008093E8
:1009B0009800109290008AE08093910082E08093EA
:1009C000710043C696DF10922601789480E091E092
:1009D0000E94930D0E947E0DF9CFDA019330B9F099
:1009E000943030F4913049F0923009F035C00AC0AB
:1009F000913241F1923281F52AC0E4E8F1E022E13E
:100A000030E02EC0E6E9F1E022E230E029C081309A
:100A100059F0813028F0823069F08330E9F40EC05B
:100A2000E8EBF1E0849103C0ECEBF1E08491282F36
:100A300030E016C0E4EDF1E08491F9CFE0EFF1E0B1
:100A40008491F5CFE8EAF1E029E030E009C0ECEA72
:100A5000F0E028ED30E004C0E0E0F0E020E030E03D
:100A6000ED93FC93C901089590914501282F30E042
:100A7000992371F080913701909138018070282B73
:100A8000392B309338012093370110924501089596
:100A90008091290190912A018070282B392B309365
:100AA0002A012093290181E0809345010895482F70
:100AB00080914501882371F02091370130913801F0
:100AC000942F80E03070822B932B90933801809389
:100AD000370108952091290130912A01942F80E057
:100AE0003070822B932B90932A01809329010895D3
:100AF00080914501882329F08091290190912A0154
:100B000008958091370190913801089580914501B1
:100B1000882331F08091290190912A01892F08952D
:100B20008091370190913801892F08958091470174
:100B3000882339F01092470180912B0190912C016C
:100B4000089581E0809347018091390190913A01A5
:100B5000089580914701882331F080912B01909175
:100B60002C01892F08958091390190913A01892FA4
:100B7000089590914301282F30E0992349F0962F52
:100B800080E0822B932B90933C0180933B0108954E
:100B9000962F80E0822B932B90932E0180932D0132
:100BA000089590914301282F30E0992349F0962F22
:100BB00080E0822B932B90933E0180933D0108951A
:100BC000962F80E0822B932B9093300180932F01FE
:100BD000089590914301282F30E0992349F0962FF2
:100BE00080E0822B932B9093400180933F010895E6
:100BF000962F80E0822B932B9093320180933101CA
:100C0000089590914301282F30E0992359F0962FB1
:100C100080E0822B932B90934201809341011092AC
:100C200043010895962F80E0822B932B90933401FB
:100C30008093330181E080934301089580913501D1
:100C400008958091480108952091490180911901EA
:100C500090E0281391E020931901209146018091A2
:100C60001A012813926020931A0120914401809167
:100C70001B012813946020931B0120913601809161
:100C80001C012813986020931C01892F08959C0152
:100C90002C9A299800C000C000C0299A2C9880E1A5
:100CA00037FF02C02A9A01C02A982998220F331FC1
:100CB00000C01B992160299A815091F7769A85E0AE
:100CC0008A95F1F77698832F922F089523983E986E
:100CD000579885B18B7E85B985B18A6085B9469A6A
:100CE0005F9A769881B3806C81BB84B1866184B948
:100CF0006E9A80B3806C80BB10926E0081E085BBE1
:100D000016BC14BC87E085BD1092470110924501C6
:100D10001092430110924901109246011092440131
:100D200010923601109235011092480110922A015A
:100D30001092290110922E0110922D011092300173
:100D400010922F0110923201109231011092340151
:100D50001092330110922C0110922B011092380145
:100D60001092370110923C0110923B0110923E010B
:100D700010923D011092400110923F0110924201E9
:100D80001092410180E090E082DF90933A018093DD
:100D900039018FEF809318010895809118018823FD
:100DA00029F01092180180E090E071CF08958091B1
:100DB0001801089548235923809590956823792335
:100DC000462B572BCA010895DF92EF92FF920F93A3
:100DD0001F93CF93DF9380911801882309F49DC15D
:100DE000D0904501DD2029F06091290170912A0100
:100DF00004C06091370170913801809143018823CC
:100E000049F00091310110913201E0903301F090EE
:100E1000340108C000913F0110914001E090410170
:100E2000F0904201C0912401D0912501C0FF0AC079
:100E3000CB0183709070019729F483E090E0A801C2
:100E4000B9DFBC01C1FF0AC0CB018370907002976B
:100E500029F483E090E0A701ADDFBC01C2FF0AC026
:100E6000CB018C709070049729F48CE090E0A8017D
:100E7000A1DFBC01C3FF0AC0CB018C709070089742
:100E800029F48CE090E0A70195DFBC01C4FF0AC003
:100E9000CB0180739070409729F480E390E0A80123
:100EA00089DFBC01C5FF0AC0CB01807390708097B9
:100EB00029F480E390E0A7017DDFBC01C6FF0BC0F1
:100EC000CB01807C90708034910529F480EC90E017
:100ED000A80170DFBC01C7FF0BC0CB01807C907004
:100EE0008038910529F480EC90E0A70163DFBC0114
:100EF000D0FF0BC0CB01807093708050914029F4DB
:100F000080E093E0A80156DFBC01D1FF0BC0CB010C
:100F1000807093708050924029F480E093E0A701A4
:100F200049DFBC01D2FF0BC0CB0180709C708050A8
:100F3000944029F480E09CE0A8013CDFBC01D3FF91
:100F40000BC0CB0180709C708050984029F480E0E9
:100F50009CE0A7012FDFBC01D4FF0BC0CB01807048
:100F600090738050904129F480E090E3A80122DF43
:100F7000BC01D5FF0BC0CB018070907380509042B4
:100F800029F480E090E3A70115DFBC01D6FF0BC078
:100F9000CB018070907C8050904429F480E090ECEC
:100FA000A80108DFBC01D7FF0BC0CB018070907C8B
:100FB0008050904829F480E090ECA701FBDEBC0152
:100FC00080912001909121016817790729F0809183
:100FD00019018F5F80934901709321016093200173
:100FE000DD2029F070932A016093290104C07093D9
:100FF000380160933701CB014ADEAC018091470193
:10100000882329F050932C0140932B0104C0509366
:101010003A014093390180912201909123014817B0
:10102000590729F080911A018F5F809346015093F0
:1010300023014093220180914301882349F02091AC
:101040002F013091300180912D0190912E0108C027
:1010500020913D0130913E0180913B0190913C01F6
:1010600024273527822393239093250180932401FD
:10107000369953C080911D01833061F0843020F493
:10108000813009F047C03CC08430D1F0863009F08F
:1010900041C020C0A89B02C08FEF01C086B58093DD
:1010A00035019091350180911F01981729F08091A9
:1010B0001B018F5F809344018091350180931F0154
:1010C00081E085BB16BC8F988AE08A95F1F78F9AEC
:1010D00086E021C0A89B02C08FEF01C086B5809337
:1010E00048019091480180911E01981729F0809144
:1010F00036018F5F809336018091480180931E01F5
:1011000081E085BB16BC8E988AE08A95F1F78E9AAD
:1011100083E001C081E080931D01DF91CF911F9199
:101120000F91FF90EF90DF9008959C014091550141
:10113000509156014617570718F4F90190E043C043
:101140006115710511F0AB01F8CF8091E8008E7741
:101150008093E80040E050E0F0CF80914E0188237A
:1011600009F447C0853009F446C08091E80083FD4A
:1011700044C08091E80082FD36C08091E80080FF85
:1011800022C08091F3009091F200782F60E0292F27
:1011900030E0262B372B07C081918093F10041501E
:1011A00050402F5F3F4F4115510519F02830310550
:1011B00098F390E02830310509F491E08091E8003F
:1011C0008E778093E8004115510539F6992329F669
:1011D0000AC080914E01882361F0853061F08091D2
:1011E000E80083FD0AC08091E80082FFF2CF80E032
:1011F000089582E0089583E0089581E008959C01B8
:101200006115710529F48091E8008B778093E800DF
:10121000F90127C080914E01882399F1853099F119
:101220008091E80083FF02C081E008958091E8008A
:1012300082FFF0CF06C08091F10081936150704031
:1012400059F02091F3008091F200322F20E090E0DD
:10125000822B932B892B79F78091E8008B778093F1
:10126000E80061157105B1F606C080914E01882332
:1012700041F0853041F08091E80080FFF6CF80E0BA
:10128000089582E0089583E008959C0140915501FE
:10129000509156014617570718F4F90190E044C0E1
:1012A0006115710511F0AB01F8CF8091E8008E77E0
:1012B0008093E80040E050E0F0CF80914E01882319
:1012C00009F448C0853009F447C08091E80083FDE7
:1012D00045C08091E80082FD37C08091E80080FF22
:1012E00023C08091F3009091F200782F60E0292FC5
:1012F00030E0262B372B08C084918093F100319683
:10130000415050402F5F3F4F4115510519F0283093
:10131000310590F390E02830310509F491E0809197
:10132000E8008E778093E8004115510531F6992346
:1013300021F60AC080914E01882361F0853061F06A
:101340008091E80083FD0AC08091E80082FFF2CF1F
:1013500080E0089582E0089583E0089581E0089593
:10136000BF92CF92DF92EF92FF920F931F93CF9392
:10137000DF93182F092F7B016A01D9D0B82E88235B
:10138000B1F5812F902F9C01E901C114D10439F0EE
:10139000F60180819181E81AF90AC80FD91F00E08F
:1013A00010E022C08091E80085FD16C08091E80021
:1013B0008E778093E800A2D3C114D10449F0F601DE
:1013C00080819181800F911F9183808385E010C07F
:1013D000AED0882349F00CC089918093F100089425
:1013E000E108F1080F5F1F4FE114F104D9F68B2DCE
:1013F000DF91CF911F910F91FF90EF90DF90CF90F1
:10140000BF900895382F282F2EC0822F8F70809381
:10141000E900231721F4762F942F50E006C0709135
:10142000EC009091ED005091F00091FF1BC0809175
:10143000EB008E7F8093EB008091ED008D7F809399
:10144000ED008091EB0081608093EB007093EC00E5
:101450009093ED005093F0008091EE0087FD02C064
:1014600080E008952F5F273080F23F703093E900CD
:1014700081E008950F931F93CF93DF93062FEC0124
:1014800010E02AC09881992329F16B81E981FA81C2
:101490002C81892F8F70873018F5223010F452E09C
:1014A00001C056E040E028E030E003C04F5F220F6B
:1014B000331F2E173F07D0F36295660F660F607CCF
:1014C000991F9927991F692B4295407F452B9ADFD9
:1014D000882331F01F5F25961017A0F281E001C02C
:1014E00080E0DF91CF911F910F91089580914F017E
:1014F00088239CF404C080914E018823B9F0809128
:10150000E80082FFF8CF8091E8008B778093E800B5
:10151000089580914E01882349F08091E80080FF72
:10152000F8CF8091E8008E778093E800089540918D
:10153000E4005091E50024E68091EC0080FF24C097
:101540008091E80080FD1EC080914E01882311F437
:1015500082E00895853011F483E008958091EB00D6
:1015600085FF02C081E008958091E4009091E5003C
:101570008417950709F3222311F484E0089521507C
:10158000AC01DACF80E008958091E80082FFDCCFE3
:10159000F9CF6BD072D0E0EEF0E080818160808383
:1015A000A8EDB0E08C918F778C9319BCE7EDF0E05B
:1015B00080818E7F80838C918F7E8C9310924D01E1
:1015C0000895EF92FF920F931F934FD056D008EDDE
:1015D00010E0F80180818F7780838081806880832C
:1015E00080818F7D808319BC10924E0110924A0138
:1015F00010924C0110924B0180EEE82EF12CF70175
:1016000080818B7F8083F80180818160808380E08E
:1016100060E042E0F7DEE1EEF0E080818E7F8083E3
:10162000E2EEF0E080818160808380818860808349
:10163000F70180818E7F8083F801808180618083C3
:101640001F910F91FF90EF900895E8EDF0E08081F9
:101650008F7E8083E7EDF0E080818160808384E08D
:1016600082BF81E080934D01ACCFE8EDF0E0808156
:101670008E7F80831092E20008951092DA0010921B
:10168000E10008951F920F920FB60F9211242F932D
:101690003F934F935F936F937F938F939F93AF93FA
:1016A000BF93EF93FF938091E10082FF0BC0809185
:1016B000E20082FF07C08091E1008B7F8093E10010
:1016C0000E949D018091DA0080FF1FC08091D800A8
:1016D00080FF1BC08091DA008E7F8093DA008091BA
:1016E000D90080FF0DC080E189BD82E189BD09B4C8
:1016F00000FEFDCF81E080934E010E949C0105C059
:1017000019BC10924E010E94D6018091E10080FF29
:1017100018C08091E20080FF14C08091E2008E7FAB
:101720008093E2008091E20080618093E2008091EA
:10173000D80080628093D80019BC85E080934E0168
:10174000DCD18091E10084FF2FC08091E20084FF12
:101750002BC080E189BD82E189BD09B400FEFDCFC7
:101760008091D8008F7D8093D8008091E1008F7E9A
:101770008093E1008091E2008F7E8093E20080916F
:10178000E20081608093E20080914A01882311F099
:1017900084E007C08091E30087FD02C081E001C0C2
:1017A00083E080934E01A9D18091E10083FF22C0A4
:1017B0008091E20083FF1EC08091E100877F8093CB
:1017C000E10082E080934E0110924A018091E10095
:1017D0008E7F8093E1008091E2008E7F8093E20013
:1017E0008091E20080618093E20080E060E042E06E
:1017F00009DE83D1FF91EF91BF91AF919F918F91BE
:101800007F916F915F914F913F912F910F900FBEFC
:101810000F901F9018951F93DF93CF93CDB7DEB72E
:10182000AC970FB6F894DEBF0FBECDBFEFE4F1E08A
:101830008091F100819321E0E735F207C9F74BD899
:101840008091E80083FF41C180914F0130915001A8
:10185000353009F48DC0363040F43130E1F13130AB
:1018600070F0333009F031C136C0383009F4FEC0B1
:10187000393009F40DC1363009F027C19CC08038D9
:1018800021F0823809F021C108C090914B0180916C
:101890004C018823B1F0926014C0809153018F7085
:1018A000873008F012C18093E9008091EB0090E04E
:1018B00025E0969587952A95E1F7982F91701092DB
:1018C000E9008091E800877F8093E8009093F10021
:1018D0001092F100D6C0882319F0823009F0F5C0CB
:1018E00090E08F719070009721F0029709F0EDC0A1
:1018F0000CC080915101813009F0E7C010924C0179
:10190000333081F580934C012DC0809151018823A3
:1019100049F5209153012F70822F8150863008F0B5
:10192000D4C02093E9008091EB0080FF1BC03330CE
:1019300021F48091EB00806213C08091EB00806104
:101940008093EB0081E090E002C0880F991F2A95F8
:10195000E2F78093EA001092EA008091EB00886041
:101960008093EB001092E9008091E800877F8CC0A3
:10197000882309F0AAC0109151011F778091E300DC
:101980008078812B8093E3008091E800877F8093AB
:10199000E800ACDD8091E80080FFFCCF8091E3009F
:1019A00080688093E300112311F482E001C083E09A
:1019B00080934E018AC08058823008F086C08091A2
:1019C00051019091520123E08C3D920709F033C000
:1019D00083E08C838AE28B837FB7F894DE011596CF
:1019E0006EE040E050E011E2E62FF0E01093570087
:1019F000849140FF03C082958F706F5F8F70282F96
:101A000030E08A3018F0C901C79602C0C901C096FB
:101A10008D939D934F5F5F4F4431510529F77FBFF1
:101A20008091E800877F8093E800CE0103966AE208
:101A300070E07BDB15C06091530170915401AE01E1
:101A40004F5F5F4F0E94ED04BC01009709F43DC059
:101A50008091E800877F8093E80089819A8115DC76
:101A60008091E8008B778093E8002FC0803869F57B
:101A70008091E800877F8093E80080914A018093FD
:101A8000F1008091E8008E778093E8002FDD1DC083
:101A90008823D9F4909151019230B8F48091E800F4
:101AA000877F8093E80090934A0120DD80914A016E
:101AB000882331F48091E30087FD02C081E001C0FA
:101AC00084E080934E010E946F048091E80083FFC0
:101AD0000AC08091E800877F8093E8008091EB0046
:101AE00080628093EB00AC960FB6F894DEBF0FBE19
:101AF000CDBFCF91DF911F91089508951F938091DD
:101B00004E01882371F01091E9008091EC00109251
:101B1000E9008091E80083FF01C07DDE1F70109313
:101B2000E9001F9108954F925F926F927F928F927A
:101B30009F92AF92BF92CF92DF92EF92FF920F935C
:101B40001F93DF93CF9300D00F92CDB7DEB77C0108
:101B50006DB67EB680914E01843009F09AC0209116
:101B6000E4003091E500F7018285938582179307A1
:101B700009F48FC081818F708093E9008091E80023
:101B800085FF87C05DB64EB6408550E08DB79EB7E5
:101B9000841B950B0FB6F8949EBF0FBE8DBF0DB77B
:101BA0001EB70F5F1F4F19821B821A82C02E912E03
:101BB000C80160E070E050E006D2C701BE016F5F6F
:101BC0007F4F40E098018E010E5F1F4F0E945D0322
:101BD000882EF70184859585892B19F4AA24BB24C6
:101BE0000BC020E0F70186859785892B09F021E05D
:101BF00081E02827A22EBB24F70106811781011559
:101C0000110511F4DD2412C04A815B818C2D992DC0
:101C1000B801C3D1DD24009711F0DD24D394F7017E
:101C20004085C8016C2D792D50E0C4D18A819B81FB
:101C3000892B01F1882021F4DD2011F4AB28D1F0AB
:101C4000F701848595859787868781818F7080933A
:101C5000E9008981882311F08093F1006A817B81FA
:101C60008C2D992D40E050E07BDB8091E8008E7751
:101C70008093E8008091E4009091E500F70193875C
:101C80008287252D342DC9010FB6F8949EBF0FBE53
:101C90008DBF0FB6F8947EBE0FBE6DBE0F900F9035
:101CA0000F90CF91DF911F910F91FF90EF90DF90F8
:101CB000CF90BF90AF909F908F907F906F905F90EC
:101CC0004F900895CF93DF93DC010996FC0187E0E4
:101CD000EF0119928A95E9F781E019968C9319978B
:101CE00084EF91E01D969C938E931C9783E014964D
:101CF0008C931497CD01019661E0BCDB811181E0EA
:101D0000DF91CF9108956F927F928F929F92AF92C1
:101D1000BF92CF92DF92EF92FF920F931F93DF93C8
:101D2000CF9300D00F92CDB7DEB76C016DB67EB603
:101D30008091E80083FF1AC1F601808190E0209134
:101D40005301309154012817390709F00FC18091D0
:101D50005001833009F4B2C0843030F4813071F026
:101D6000823009F003C1E6C08A3009F4CBC08B3061
:101D700009F4B5C0893009F0F9C05CC080914F0109
:101D8000813A09F0F3C09DB68EB61B821A8280910B
:101D90005101109152018983F601408550E08DB7C1
:101DA0009EB7841B950B0FB6F8949EBF0FBE8DBFD8
:101DB000EDB6FEB60894E11CF11CBE2CAF2CC70199
:101DC00060E070E050E0FFD01150C601BE016F5FCF
:101DD0007F4F412F97018E010E5F1F4F0E945D03C1
:101DE000F601268137812115310529F04085C90189
:101DF000B70150E0DFD01092E9008091E800877FC2
:101E00008093E8008981882311F08093F1006A8132
:101E10007B818B2D9A2D89D98091E8008B778093D7
:101E2000E800292D382DC9010FB6F8949EBF0FBECA
:101E30008DBF9CC080914F01813209F097C09DB643
:101E40008EB60091550110915601A0905101B090AD
:101E500052018DB79EB7801B910B0FB6F8949EBFB1
:101E60000FBE8DBFEDB6FEB60894E11CF11C80914B
:101E7000E800877F8093E800C701B801C0D980914E
:101E8000E8008E778093E80080E090E0AA2011F0CF
:101E900081E090E0BA94E80EF91E081B190BC60108
:101EA0006A2D4B2D97010E94D901892D982D9C01F7
:101EB0000FB6F8943EBF0FBE2DBF58C080914F01A2
:101EC000813A09F053C08091E800877F8093E80051
:101ED0008091E80080FFFCCFF60181853FC08091B2
:101EE0004F01813209F042C08091E800877F8093E2
:101EF000E800FCDA90E080915101811191E0F60157
:101F0000918734C080914F01813281F58091E80042
:101F1000877F8093E800EADA809151019091520125
:101F2000807036E0969587953A95E1F7F6019587AA
:101F300084871CC080914F01813AC1F48091E800F0
:101F4000877F8093E8008091E80080FFFCCFF60156
:101F50008485958596958795969587958093F100CC
:101F60008091E8008E778093E800C0DA0FB6F8948D
:101F70007EBE0FBE6DBE0F900F900F90CF91DF9180
:101F80001F910F91FF90EF90DF90CF90BF90AF9097
:101F90009F908F907F906F900895FB01DC0104C0AB
:101FA0008D910190801921F441505040C8F7881B51
:101FB000990B0895FB01DC0102C001900D92415084
:101FC0005040D8F70895DC0101C06D934150504056
:081FD000E0F70895F894FFCF3B
:101FD8000081080000010000080000000000000067
:00000001FF
